{
    "contractName": "SimpleStorage",
    "abi": [
        {
            "inputs": [],
            "name": "add",
            "outputs": [
                {
                    "internalType": "uint256",
                    "name": "",
                    "type": "uint256"
                }
            ],
            "stateMutability": "pure",
            "type": "function"
        },
        {
            "inputs": [],
            "name": "number",
            "outputs": [
                {
                    "internalType": "uint256",
                    "name": "",
                    "type": "uint256"
                }
            ],
            "stateMutability": "view",
            "type": "function"
        },
        {
            "inputs": [],
            "name": "retrieve",
            "outputs": [
                {
                    "internalType": "uint256",
                    "name": "",
                    "type": "uint256"
                }
            ],
            "stateMutability": "view",
            "type": "function"
        },
        {
            "inputs": [
                {
                    "internalType": "uint256",
                    "name": "_number",
                    "type": "uint256"
                }
            ],
            "name": "store",
            "outputs": [],
            "stateMutability": "nonpayable",
            "type": "function"
        }
    ],
    "bytecode": "608060405234801561001057600080fd5b5060cf8061001f6000396000f3fe6080604052348015600f57600080fd5b506004361060465760003560e01c80632e64cec114604b5780634f2be91f1460615780636057361d1460675780638381f58a146079575b600080fd5b6000545b60405190815260200160405180910390f35b6002604f565b607760723660046081565b600055565b005b604f60005481565b600060208284031215609257600080fd5b503591905056fea2646970667358221220dfac40f8ab6513e35090a01d3ee21084ca9b32737133d2ca421e59f8a946cfd264736f6c63430008110033",
    "sourcePath": "c:/Users/shrey/web3/solidity-basics/SimpleStorage.sol",
    "compiler": {
        "name": "solc",
        "version": "0.8.17+commit.8df45f5f"
    },
    "functionHashes": {
        "add()": "4f2be91f",
        "number()": "8381f58a",
        "retrieve()": "2e64cec1",
        "store(uint256)": "6057361d"
    },
    "gasEstimates": {
        "creation": {
            "codeDepositCost": "41400",
            "executionCost": "93",
            "totalCost": "41493"
        },
        "external": {
            "add()": "180",
            "number()": "2327",
            "retrieve()": "2247",
            "store(uint256)": "22334"
        }
    }
}